:100000000C945D000C9485000C9485000C94850084
:100010000C9485000C9485000C9485000C9485004C
:100020000C9485000C9485000C9485000C9485003C
:100030000C9485000C9485000C9485000C9485002C
:100040000C94E0020C9485000C9485000C948500BF
:100050000C9485000C9485000C9485000C9485000C
:100060000C9485000C94850000000008000201003B
:100070000003040700000000000000000000000072
:10008000250028002B0000000000240027002A0083
:10009000040404040404040402020202020203032E
:1000A0000303030301020408102040800102040836
:1000B0001020010204081020AC0311241FBECFEF52
:1000C000D8E0DEBFCDBF11E0A0E0B1E0EEEAF7E09E
:1000D00002C005900D92A231B107D9F721E0A2E14B
:1000E000B1E001C01D92A333B207E1F710E0CDE506
:1000F000D0E004C02197FE010E94CA03CC35D1078D
:10010000C9F70E942A030C94D5030C94000090E0D8
:10011000FC01EC55FF4F2491FC01E057FF4F849107
:10012000882399F090E0880F991FFC01EA57FF4F50
:10013000A591B491FC01E458FF4F859194918FB73C
:10014000F894EC91E22BEC938FBF0895CF92DF925D
:10015000EF92FF920F931F93CF93DF936C017A017D
:100160008B01C0E0D0E0CE15DF0581F0D8016D91A4
:100170008D01D601ED91FC910190F081E02DC60139
:100180000995892B11F02196EECF7E01C701DF91F1
:10019000CF911F910F91FF90EF90DF90CF90089536
:1001A00045E050E06CE071E08BE191E00C94A6003A
:1001B00090E0FC01E859FF4F2491FC01EC55FF4F02
:1001C0003491FC01E057FF4FE491EE2309F43CC069
:1001D000222339F1233091F038F42130A9F0223074
:1001E00001F584B58F7D12C0273091F02830A1F041
:1001F0002430B9F4809180008F7D03C0809180000D
:100200008F77809380000DC084B58F7784BD09C03F
:100210008091B0008F7703C08091B0008F7D809374
:10022000B000F0E0EE0FFF1FE458FF4FA591B4912E
:100230009FB7F894611104C08C913095382302C0A7
:10024000EC913E2B3C939FBF08953FB7F89480916B
:10025000170190911801A0911901B0911A0126B5CA
:10026000A89B05C02F3F19F00196A11DB11D3FBFEE
:10027000BA2FA92F982F8827820F911DA11DB11D7C
:10028000BC01CD0142E0660F771F881F991F4A9578
:10029000D1F708958F929F92AF92BF92CF92DF9243
:1002A000EF92FF920E9425014B015C0186E9C82E66
:1002B000D12CE12CF12C0E942501DC01CB01881905
:1002C0009909AA09BB09883E9340A105B10598F395
:1002D00021E0C21AD108E108F10888EE880E83E017
:1002E000981EA11CB11CC114D104E104F10419F73A
:1002F000FF90EF90DF90CF90BF90AF909F908F9046
:100300000895CF93DF93EC0160E08E810E94D800C6
:1003100061E08E810E94D80060E08E810E94D8004A
:100320008BE891E00197F1F7DF91CF910895CF929B
:10033000DF92EF92FF920F931F93CF93DF936C01A5
:100340007C0187E0E80EF11CC0E0D0E0062F10E051
:10035000B8010C2E02C0759567950A94E2F761709A
:10036000F70181917F010E94D8002196C430D10508
:1003700079F7C601DF91CF911F910F91FF90EF9018
:10038000DF90CF900C948101CF92DF92EF92FF9299
:100390000F931F93CF93DF93EC01F62E642F8C8184
:1003A0000E94D8008D818F3F19F060E00E94D80034
:1003B0008F850F2D10E084FF25C06E0187E0C80EE9
:1003C000D11CE12CF12CB8010E2C02C0759567955B
:1003D0000A94E2F76170F60181916F010E94D800E2
:1003E000FFEFEF1AFF0A88E0E816F10461F7CE018B
:1003F000DF91CF911F910F91FF90EF90DF90CF9001
:100400000C948101B80184E0759567958A95E1F7B0
:10041000CE010E9497016F2DCE01DF91CF911F91E8
:100420000F91FF90EF90DF90CF900C94970140E0F8
:10043000682F8BE191E00C94C40181E00E941702C7
:100440008BE39FE10197F1F70895CF93DF9382301B
:1004500028F090912A01986090932A0180932E01B0
:1004600010922F0180E48093300180E1809331016C
:1004700080E58093320180911F010E948700809166
:1004800020018F3F11F00E948700809121010E947E
:100490008700CBE1D1E09E012B51314080912A01B0
:1004A00084FD03C084E090E002C088E090E02196E3
:1004B0002817390724F48E810E948700ECCF8BE344
:1004C0009DE00197F1F760E080911F010E94D80044
:1004D00060E0809121010E94D800809120018F3F2F
:1004E00019F060E00E94D80080912A0184FD20C0AC
:1004F00063E08BE191E00E949701CBE4D6E4CE016A
:100500000197F1F763E08BE191E00E949701219759
:10051000F1F763E08BE191E00E94970183E592E0BF
:100520000197F1F762E08BE191E00E94970115C01D
:1005300080620E9417028BE496E40197F1F78091A4
:100540002A0180620E94170283E592E00197F1F789
:1005500080912A0180620E94170280912A018062A4
:100560000E94170284E080932B018CE00E94170206
:100570000E941D0282E080932C0186E0DF91CF91E2
:100580000C941702643008F063E090912E01691713
:1005900010F06FEF690FE62FF0E0E55EFE4F9489F3
:1005A000890F80680C94170241E00E94C40181E029
:1005B00090E00895089580E090E008950E94D003AF
:1005C0001F920F920FB60F9211242F933F938F9388
:1005D0009F93AF93BF938091130190911401A091C9
:1005E0001501B09116013091120123E0230F2D3730
:1005F00020F40196A11DB11D05C026E8230F029627
:10060000A11DB11D20931201809313019093140139
:10061000A0931501B09316018091170190911801D4
:10062000A0911901B0911A010196A11DB11D8093ED
:10063000170190931801A0931901B0931A01BF916B
:10064000AF919F918F913F912F910F900FBE0F907F
:100650001F901895789484B5826084BD84B58160BC
:1006600084BD85B5826085BD85B5816085BD80917D
:100670006E00816080936E001092810080918100F5
:1006800082608093810080918100816080938100ED
:10069000809180008160809380008091B1008460AF
:1006A0008093B1008091B00081608093B000809110
:1006B0007A00846080937A0080917A0082608093CF
:1006C0007A0080917A00816080937A0080917A002C
:1006D000806880937A001092C10082E00E94250217
:1006E0008BE0F82E90E0C92E90E0D92EDBE000E000
:1006F00010E005301105A9F4C5E060E08C2F0E94E0
:10070000C2020E94D00061E08F2D8C1B0E94C202A9
:100710000E94D0000E944A010E941D02C15069F748
:1007200010C060E0802F0E94C2020E94D00061E0F1
:100730008D2F0E94C2020E94D0000E944A010E9496
:100740001D020F5F1F4FD150D53099F6C114D1044F
:1007500069F20E940000CACFEBE1F1E0138212823D
:1007600084E091E0918380838CE084838FEF8583A4
:100770008BE0868385E0878384E0808783E08187C0
:1007800082E082871386148615861686178681E096
:100790000C942502EE0FFF1F0590F491E02D0994B3
:0E07A00081E090E0F8940C94D503F894FFCF1C
:1007AE0000000000D402A600DB02DA0252495348D0
:0207BE004900F0
:107E0000112484B714BE81FFF0D085E080938100F7
:107E100082E08093C00088E18093C10086E0809377
:107E2000C20080E18093C4008EE0C9D0259A86E02C
:107E300020E33CEF91E0309385002093840096BBD3
:107E4000B09BFECF1D9AA8958150A9F7CC24DD24C4
:107E500088248394B5E0AB2EA1E19A2EF3E0BF2EE7
:107E6000A2D0813461F49FD0082FAFD0023811F036
:107E7000013811F484E001C083E08DD089C08234E0
:107E800011F484E103C0853419F485E0A6D080C0E4
:107E9000853579F488D0E82EFF2485D0082F10E0AE
:107EA000102F00270E291F29000F111F8ED06801E7
:107EB0006FC0863521F484E090D080E0DECF843638
:107EC00009F040C070D06FD0082F6DD080E0C81688
:107ED00080E7D80618F4F601B7BEE895C0E0D1E017
:107EE00062D089930C17E1F7F0E0CF16F0E7DF06D8
:107EF00018F0F601B7BEE89568D007B600FCFDCFD4
:107F0000A601A0E0B1E02C9130E011968C91119780
:107F100090E0982F8827822B932B1296FA010C0160
:107F200087BEE89511244E5F5F4FF1E0A038BF0790
:107F300051F7F601A7BEE89507B600FCFDCF97BE46
:107F4000E89526C08437B1F42ED02DD0F82E2BD052
:107F50003CD0F601EF2C8F010F5F1F4F84911BD097
:107F6000EA94F801C1F70894C11CD11CFA94CF0C13
:107F7000D11C0EC0853739F428D08EE10CD085E9AC
:107F80000AD08FE07ACF813511F488E018D01DD067
:107F900080E101D065CF982F8091C00085FFFCCF94
:107FA0009093C60008958091C00087FFFCCF809118
:107FB000C00084FD01C0A8958091C6000895E0E648
:107FC000F0E098E1908380830895EDDF803219F02E
:107FD00088E0F5DFFFCF84E1DECF1F93182FE3DFCA
:107FE0001150E9F7F2DF1F91089580E0E8DFEE27F6
:047FF000FF270994CA
:027FFE00040479
:0400000300007E007B
:00000001FF
